S02400007673636F64652D6275696C642F6D656D6C63645F626172656D6574616C2E73333762
S31508000000001000203D0700081934000819340008BC
S31508000010193400081934000819340008193400087E
S31508000020193400081934000819340008193400086E
S31508000030193400081934000819340008193400085E
S31508000040193400081934000819340008193400084E
S31508000050193400081934000819340008193400083E
S31508000060193400081934000819340008193400082E
S31508000070193400081934000819340008193400081E
S31508000080193400081934000819340008193400080E
S3150800009019340008193400081934000819340008FE
S315080000A01934000819340008BD0B0008990B00081C
S315080000B019340008193400081934000819340008DE
S315080000C019340008193400081934000819340008CE
S315080000D019340008193400081934000819340008BE
S315080000E019340008193400081934000819340008AE
S315080000F0193400081934000819340008193400089E
S31508000100193400081934000819340008193400088D
S31508000110193400081934000819340008193400087D
S31508000120193400081934000819340008193400086D
S31508000130193400081934000819340008193400085D
S31508000140193400081934000819340008193400084D
S3150800015019340008193400087D3A000819340008D3
S31508000160193400081934000819340008193400082D
S31508000170013800D0FCE7704710B5054C237833B931
S31508000180044B13B1044800E000BF0123237010BDDF
S31508000190A010002000000000FC44000808B5034B2E
S315080001A01BB10349034800E000BF08BD000000007A
S315080001B0A4100020FC440008A3F5803A704700BF4D
S315080001C0174B002B08BF134B9D46FFF7F5FF002181
S315080001D08B460F461348144A121A03F08FFC0E4B2F
S315080001E0002B00D098470D4B002B00D098470020D5
S315080001F0002104000D000D48002802D00C4800E03C
S3150800020000BF03F079F82000290003F06CFC03F026
S315080002105FF800BF000008000000000000000000B2
S3150800022000100020A0100020581B0020000000002D
S315080002300000000010B5274C01F04CFA01F06CFCE8
S31508000240236F23F0070343F00303236703F096F9AC
S31508000250214B00209B6ADB015EBF4FF480321F4BA7
S315080002609A62D4F8203123F0070343F00203C4F856
S315080002702031D4F8283123F0070343F00203C4F8E9
S315080002802831D4F8403123F0030343F00203C4F8BD
S315080002904031D4F8603123F0030343F00203C4F875
S315080002A06031D4F8403223F0030343F00203C4F864
S315080002B04032D4F8003223F0070343F00203C4F8AF
S315080002C00032D4F8083223F0070343F00203C4F8D7
S315080002D0083210BD008000500040005A0060005AE5
S315080002E04FF480301E491F4A4B6E10B55066486E53
S315080002F04FF000414AF6CD3451661B4903F480336A
S315080003004A6C0C6402F001024C6BE407FCD401242D
S3150800031016494C60A1F500510C6BE407FCD50AB1EF
S31508000320134A0A640028A2BF4FF00041114A5166D9
S315080003301BB94FF480320F4B5A6602F0A3FA03F04A
S315080003403EF802F029FA02F089FA02F04DFAFFF7B0
S3150800035071FF02F037FABDE8104003F025B800BF78
S31508000360008000500090005000400950006009507D
S315080003703254FFFF00A0005008B5044803F056F8B1
S31508000380BDE80840024803F051B800BF343B0008F6
S315080003904C3B00082DE9F043044689B0214E01ADD7
S315080003A0884617460FCE0FC596E8070085E807006A
S315080003B01D4E01213A20D4F80090D6F8985700F03F
S315080003C0E1FE6068012100F0DDFE617B207B0023F1
S315080003D0042201F009FE0422617A207A002301F042
S315080003E003FE0123484601A98DF81230CDF80C808A
S315080003F0ADF8147001F03EFF0020627A237A05F00A
S31508000400040543EA0243C6F8B037627B237B45F00E
S31508000410180543EA0243C6F8AC37C6F8985709B038
S31508000420BDE8F083643B000800C0035013B50446DA
S3150800043002F076FB00230122247BCDE9003264001A
S31508000440B0FBF4F1024A034803F0EFFA02B010BD1C
S3150800045059040008BC1000204022024BC3F8A02013
S31508000460704700BF00F00350F7B54FF48076104C84
S31508000470054604F58053C3F8A060407B02F0DAFC19
S3150800048004230C4F02220DF106013846ADF806305A
S3150800049002F0A2FF384602F0B0FFA87B02F0CAFCC1
S315080004A0002004F50054C4F8A06003B0F0BD00BFF6
S315080004B000C003500010002070B5064635460121DD
S315080004C03A2000F05FFEB16800220F48FFF762FF8E
S315080004D00E4C002304220821022001F085FD00238A
S315080004E004220621022001F07FFD0FCD0FC4012250
S315080004F02B6830462360064B1A70FFF797FF304685
S31508000500FFF7B2FF002070BD00100020DC100020AD
S31508000510521300202DE9F74F14464FF480720688CF
S315080005209846037901345E43254BA4B2C3F8A0204C
S315080005300546407B0F4602F07DFC230243F001038B
S31508000540022220480DF10601ADF806304FF00009E9
S3150800055002F042FF01342402DFF868B0F610A4B2B4
S3150800056008F1FF3AC14511D1164802F046FFA87BAB
S3150800057002F060FC4FF48072134B1248C3F8A020B7
S3150800058002F040FF002003B0BDE8F08F394632463E
S31508000590584602F021FFCA450CBF4FF6FF7344F0D8
S315080005A0FF03022258460DF1060104F58074ADF8E2
S315080005B00630374402F010FF09F10109A4B2D1E769
S315080005C000D003500010002000E00350034B0448FD
S315080005D01B78002B08BF0020704700BF521300206D
S315080005E0DC10002030B5064D87B001AC0FCD0FC426
S315080005F02B6801A82360FFF75FFF07B030BD00BF77
S31508000600803B00081022024BC3F8A020704700BFA9
S3150800061000D003501022024BC3F8A020704700BF39
S3150800062000E0035070B5404D88B001AC0FCD0FC443
S3150800063095E8070084E80700012401213A2000F024
S31508000640A1FD3A4E0121292000F09CFD384B304689
S3150800065001A903938DF8124001F00CFE23462146AA
S315080006600422022001F0C0FC02212246084600238B
S3150800067001F0BAFC234604220321022001F0B4FC4F
S31508000680042223461146022001F0AEFC294D2A4BCE
S315080006904FF44870C5F8AC374FF00213C5F8A837C1
S315080006A0A3F58033C5F8B0371C23C5F8983702F090
S315080006B0C1FB1420FFF7AEFF02F0BCFB2320FFF7B7
S315080006C0A1FF02F0B7FBB9213046FFF7A3FF02F0FE
S315080006D094FFFFF797FF002321461A46022001F0F0
S315080006E083FC002302211A46084601F07DFC2346B6
S315080006F000220321022001F077FC23460022042170
S31508000700022001F071FC304601F088FD0021292005
S31508000710C5F8AC17C5F8A817C5F8B017C5F89817DF
S3150800072000F030FD08B070BD943B000800C00550CD
S3150800073000127A0000C003500200030008B500F05A
S315080007402DF8124B12498B4212D30020114B124935
S315080007508B4218D3FFF734FD186850F822405868C2
S3150800076040F82240013298688242F5D30C33EAE712
S315080007700022F8E71C6844F8220001325C68A242AD
S31508000780F8D30833E4E70022F8E700BF0445000879
S315080007901045000810450008104500084FF4804130
S315080007A04FF0FF30114B124A10B59A60D3F88820E3
S315080007B042F47002C3F888200E4A91660E4901F584
S315080007C0005210660D4850660220C3F8D000BFF3E9
S315080007D04F8FBFF36F8F01244FF440330848C0F89A
S315080007E08041D36004600B6110BD00BF00ED00E0DE
S315080007F00000000800900050008000447FFF7F0141
S3150800080000E100E0014B1868704700BF1410002093
S31508000810084B1B6F03F00703022B04D0032B05D0EC
S31508000820012B05D0FEE7044B18687047034BFBE71E
S31508000830034870470080005014100020181000204C
S31508000840002D310108B5FFF7E3FF054B1B6FC3F316
S3150800085003330133B0FBF3F0024B186008BD00BF49
S3150800086000800050101000200048704700B4C404EF
S31508000870014B1868704700BF18100020054B186018
S31508000880054B1B6F03F00703032B01D1FFF7DABFF4
S31508000890704700BF181000200080005000487047BD
S315080008A0002D31014FF0B4439868C0F304400C287A
S315080008B022D8DFE800F00921212121210717192173
S315080008C01B1D1F000F4870479B6803F04073B3F168
S315080008D0807F13D0B3F1007F12D00B4A002B08BFDC
S315080008E010467047094870470948704709487047D5
S315080008F009487047094870470020704708487047FC
S3150800090008487047405DC60000093D000024F40011
S31508000910C0EA210180BA8C010048E801005A620247
S3150800092080841E0040420F00014B1868704700BFC4
S315080009301C10002038B50D460446C0B1012819D050
S31508000940022819D0032803D13F23EB40DB0704D440
S3150800095040F2CF310A4802F068FD3020142310FB1C
S315080009600434084BE058E84000F0010038BD40F276
S31508000970FF73EAE70F23E8E740F2FF33E5E700BF36
S31508000980B03B000830C0035037B50468012105465E
S315080009903A2000F0F7FB002301226179207901F063
S315080009A023FB61792079FFF7C5FFB0FA80F35B096D
S315080009B02370A379022B15D100F098F82A460B4923
S315080009C0607900F0BDF8FF28054603D15C21084888
S315080009D002F02BFD0123617920792A46CDE90033FF
S315080009E001F086FA002003B030BD00BF413400088C
S315080009F0DD3B000808B501213A2000F0C3FB0321BE
S31508000A0001230422002001F0EFFA002002F0EEFD97
S31508000A100122214B4FF46070C3F8442400F0DEFB3A
S31508000A201E4B00F5D520D3F8F02000F2FC4042F02A
S31508000A300102C3F8F020D3F8FC2042F08072C3F814
S31508000A40FC20174AA3F55D431A60164B0222B0FB39
S31508000A50F3F0154B01381861C3F8F0204FF4807293
S31508000A60C3F804234FF06043104A0020C3F8B02FA0
S31508000A700F4AC3F8802ED3F8002E42F48072C3F8CA
S31508000A80002EFF2283F82020D3F8002E22F480724D
S31508000A90C3F8002E08BD00BF00D0035000ED00E0EB
S31508000AA0FF030040F8590D00000004E055CEACC520
S31508000AB00900010070B5044601250B4E04B970BD46
S31508000AC094FAA4F0B0FA80F005FA00F306EB0012E7
S31508000AD024EA03045368002BF0D0117B11B1916806
S31508000AE09847EBE79847E9E7F010002008B51A2081
S31508000AF001F034F828B14FF08062074BC3F8802123
S31508000B001A601B2001F02AF828B14FF00062024B48
S31508000B10C3F880211A6008BD00E100E038B5054633
S31508000B200C4602F047FD0022044B03EB05135C60FC
S31508000B301A73BDE8384002F043BD00BFF01000202C
S31508000B40F8B505460F46164602F034FD104B05F07B
S31508000B50FC02D3F824140023EC1804F0030414430D
S31508000B6021FA04FC1CF0010F07D00133042BF3D142
S31508000B70FF2402F025FD2046F8BDFF2CF9D00122FE
S31508000B80044B03EB0413C3E901761A73F1E700BFBC
S31508000B9000C00350F0100020074BD3F82404D3F804
S31508000BA0202403F50053104000F0553020F0502063
S31508000BB0C3F82004FFF77EBF00C00350074BD3F8E5
S31508000BC02404D3F8202403F50053104000F0AA307B
S31508000BD020F0A020C3F82004FFF76CBF00C0035024
S31508000BE0044BD3F88420D206FBD4D3F88400C0F390
S31508000BF0811070470040005038B51A4B0546D3F8A7
S31508000C0020010C4600F00700062821D8DFE800F08E
S31508000C1028040C1410181C00FFF7F4FD052305B171
S31508000C20286004B1236038BDFFF722FE0323F6E7E8
S31508000C30FFF738FE0723F2E7FFF730FE0223EEE759
S31508000C40FFF7E0FD0623EAE7FFF712FE0423E6E7CF
S31508000C50054841F2252102F0E8FB00231846DEE7A5
S31508000C600123DCE7008000501B3C000838B5194B0F
S31508000C700546D3F828310C4603F00703013B052B3C
S31508000C8020D8DFE803F003131B0F0B17FFF7BAFD95
S31508000C90052305B1286004B1236038BDFFF7B2FD0E
S31508000CA00623F6E7FFF7FEFD0723F2E7FFF7E0FD69
S31508000CB00323EEE7FFF7DCFD0423EAE7FFF7EEFD83
S31508000CC00223E6E7044841F22D0102F0AEFB0023B9
S31508000CD01846DEE7008000501B3C0008F7B50027E1
S31508000CE0144B0197D3F88041064604F00304022CFE
S31508000CF00D4614D0032C0DD0012C14D1394601A869
S31508000D00FFF77AFF0F240EB1019B336005B12C6003
S31508000D1003B0F0BDFFF7C6FD07240190F3E7FFF720
S31508000D20BDFD0190EFE741F27A31034802F07DFB01
S31508000D303C46E8E7008000501B3C000838B50F4BDE
S31508000D400546D3F890320C4603F00303012B09D06D
S31508000D50022B0BD1FFF7A6FD072305B1286004B1C6
S31508000D60236038BDFFF79AFD0223F6E7044841F2EF
S31508000D70191102F05AFB00231846EEE700800050CE
S31508000D801B3C0008002337B50193194B0546D3F8D9
S31508000D9020320C4603F00703042B1FD8DFE803F0C4
S31508000DA025030F141900002101A8FFF75FFF11237F
S31508000DB00DB1019A2A6004B1236003B030BDFFF774
S31508000DC071FD07230190F3E702F029FB0A2301903E
S31508000DD0EEE7FFF7A9FD09230190E9E740F6EC7174
S31508000DE0044802F022FB0023E2E70123E0E700BF04
S31508000DF0008000501B3C000838B5104B0546D3F858
S31508000E0040310C4603F00303022B0BD0032B0DD005
S31508000E10012B0FD102F003FB0A2305B1286004B1A8
S31508000E20236038BDFFF780FD0923F6E702F0FAFADA
S31508000E300B23F2E701230020EFE700BF00800050F4
S31508000E40002337B50193184B0546D3F860320C4694
S31508000E5003F00703013B032B1FD8DFE803F0020E5C
S31508000E601914002101A8FFF7C7FE0F230DB1019A37
S31508000E702A6004B1236003B030BD002101A8FFF742
S31508000E80BBFF1023F2E7FFF70DFD07230190EDE7FF
S31508000E90FFF704FD02230190E8E741F291010348B8
S31508000EA002F0C3FA0023E1E7008000501B3C00086B
S31508000EB073B500240F4B0194D3F87032064603F03D
S31508000EC00303012B0D4607D0022B11D041F2EF0187
S31508000ED0094802F0AAFA04E0214601A8FFF78CFFA8
S31508000EE010240EB1019B336005B12C6002B070BDB1
S31508000EF01424F6E7008000501B3C000838B5164B52
S31508000F000546D3F800020C4600F00700042819D855
S31508000F10DFE800F020030B0F130002F080FA0A2323
S31508000F2005B1286004B1236038BDFFF7FDFC09232D
S31508000F30F6E702F077FA0B23F2E7FFF783FC0E23B6
S31508000F40800AEDE7054841F2384102F06EFA0023BF
S31508000F501846E5E70123E3E7008000501B3C00083C
S31508000F6038B5164B0546D3F808020C4600F00700BC
S31508000F70042819D8DFE800F020030B0F130002F04D
S31508000F804EFA0A2305B1286004B1236038BDFFF77D
S31508000F90CBFC0923F6E702F045FA0B23F2E7FFF745
S31508000FA051FC0E23800AEDE7054841F2704102F034
S31508000FB03CFA00231846E5E70123E3E700800050E2
S31508000FC01B3C000838B5104B0546D3F840320C4692
S31508000FD003F00303022B0BD0032B0DD0012B0FD1EB
S31508000FE002F01DFA0A2305B1286004B1236038BD52
S31508000FF0FFF79AFC0923F6E702F014FA0B23F2E747
S3150800100001230020EFE700BF0080005038B5124BDF
S315080010100546D3F850320C4603F00303022B0FD0D3
S31508001020032B05D0012B0FD102F0F9F90A2302E0B0
S3150800103002F0F8F90B2305B1286004B1236038BD26
S31508001040FFF772FC0923F6E7044841F25D0102F056
S31508001050ECF900231846EEE7008000501B3C000818
S3150800106038B5104B0546D3F860310C4603F0030338
S31508001070022B0BD0032B0DD0012B0FD102F0CFF989
S315080010800A2305B1286004B1236038BDFFF74CFC7C
S315080010900923F6E702F0C6F90B23F2E7012300203D
S315080010A0EFE700BF00800050B0F5207F10B534D0C0
S315080010B009D8B0F5007F2AD003D898B1B0F5C07F1B
S315080010C010D0002421E0B0F5607FFAD1154BD3F893
S315080010D08030C3F301149B0617D5032C15D040F2B4
S315080010E085210FE00F4B1C6F230B13F00E0FC4F373
S315080010F003340AD0032C08D0072C06D00F2C04D0B2
S3150800110040F27521084802F090F9601C10BD054BA5
S31508001110D3F89040C4F30464F7E7024B1C6FC4F39A
S315080011208024F2E7008000501B3C00084FF4803210
S3150800113038B5104B04469A6600200D46FFF7B4FFF3
S3150800114041F671320C4B6043DC69DA635A6804F481
S31508001150803422F440125DB9084988428CBF4FF4A6
S3150800116080100020104358600CB10022DA6338BDA5
S315080011700349F2E70090005000000350005A62024B
S31508001180002D310170B5440905460E460ED14FF4BF
S3150800119047710F4802F049F905F01F05AEB104F58D
S315080011A08053012000FA05F51D6070BD012C08D09A
S315080011B0022C08D040F22631054802F036F9002400
S315080011C0EAE7044CE8E7044CE6E704F50053E8E7E9
S315080011D01B3C00086480005068800050002130B530
S315080011E0B0F5807F85B00446019100F0FE806BD88B
S315080011F0002800F0DA80A0F12004602C74D8602C56
S3150800120072D8DFE814F0D200D500D200D500E80085
S31508001210E800E800E800E800D500ED007D000301DD
S315080012209D007D00D500D500D500710071007100C4
S3150800123071007100710071000301D500D500D50059
S315080012401B010801D5007100710071007100710061
S3150800125071007100710071007100710071000D015B
S31508001260E800D200D200D200B0007D007D00B800B0
S3150800127012019200C700C700710071007100710069
S3150800128071007100710071007100710071007100C8
S3150800129071007100710071007100710071007100B8
S315080012A071007100710071007100710071007100A8
S315080012B07100710071007100710071007100710098
S315080012C0710071007100CC00B0F5E06F00F0A380EA
S315080012D03BD8B0F5607F75D01DD8B0F5007F71D0CA
S315080012E008D8B0F5C07F60D040F27941564802F080
S315080012F09CF857E0B0F5207F5AD0B0F5407FF3D17F
S31508001300FFF7A0FA04464FF42070FFF7CDFEB4FBB2
S31508001310F0F0400845E0B0F5B06F61D00AD8B0F5F6
S31508001320806F58D0B0F5A06FDED1002101A8FFF775
S3150800133029FD37E0B0F5C06F68D0B0F5D06FD3D1CE
S31508001340002101A8FFF7DAFD2CE0B0F5286F6CD074
S3150800135016D8B0F5186F63D00AD8B0F5F06F6DD00F
S31508001360B0F5106FC0D1002101A8FFF7F9FD19E00B
S31508001370B0F5206FB8D1002101A8FFF761FD11E093
S31508001380B0F5306F56D0AFD3B0F5386F3ED0B0F564
S31508001390406FA9D1002101A8FFF768FC02E0FFF71A
S315080013A037FA0190019805B030BDFFF74BFAF8E718
S315080013B0FFF748FA04464FF42070FFF775FEB4FBB2
S315080013C0F0F0EEE7FFF724FA05462046FFF76CFE35
S315080013D0B5FBF0F0E5E7002101A8FFF70DFCE1E712
S315080013E0002101A8FFF77AFCDCE74FF0E023029121
S315080013F01B695B0705D5FFF725FA0290029B019347
S31508001400D0E703A902A8FFF7F7FCF7E7002101A830
S31508001410FFF7F2FCC6E7002101A8FFF7D3FDC1E7F5
S31508001420002101A8FFF7F2FDBCE7002101A8FFF79C
S315080014303FFDB7E701A8FFF781FCB3E7002101A844
S31508001440FFF70EFEAEE700BF1B3C000808B580207C
S31508001450FFF7C4FE034B98429EBF4FF48032024BFF
S315080014601A6708BD005A620200A000501FB5002383
S31508001470B0F5807F019300F0D68076D8582867D8D3
S31508001480382805D82438092848D940F25A51BEE0E8
S3150800149039381F28F9D801A353F820F0491600084F
S315080014A08B1400088B1400088B14000853160008C8
S315080014B0991600088B1400088B1400088B14000872
S315080014C08B1400088B1400088B1400088B14000872
S315080014D08B1400088B1400088B1400088B14000862
S315080014E08B1400088B140008A31600089115000831
S315080014F08B1400088B1400088B140008D5150008F7
S315080015008B1400088B140008AD160008B7160008DF
S315080015108F160008F7150008F71500080928B4D82B
S3150800152001A353F820F000BF911500089115000893
S315080015309115000891150008911500088B140008EC
S31508001540171600088B14000849160008AF1500087E
S3150800155080289AD15D4B1B6F03F00703013B032BD1
S3150800156053D8DFE803F0504D8890B0F5086F75D072
S3150800157022D8B0F5C06F67D00FD8B0F5A06F00F0CD
S315080015808680B0F5B06F46D0B0F5806F7FF47DAF3A
S31508001590002001A9FFF730FB41E0B0F5E06F7BD0F2
S315080015A0B0F5F06F55D0B0F5D06F7FF46EAF002070
S315080015B001A9FFF7A3FC32E0B0F5286F7BD00ED85F
S315080015C0B0F5186F6DD0B0F5206F6FD0B0F5106F0D
S315080015D07FF45BAF002001A9FFF7C2FC1FE0B0F55E
S315080015E0306F6DD0FFF451AFB0F5386F2CD0B0F531
S315080015F0406F7FF44AAF002001A9FFF737FB0EE0E2
S31508001600052301930BE00223FBE740F2AB41304888
S3150800161001F00BFF03E0002001A9FFF75FFB01982B
S3150800162005B05DF804FB02934FF0E0231B695B07E6
S3150800163005D5FFF707F90C230393039BE1E703A9F5
S3150800164002A8FFF7D9FBF8E7002001A9FFF7D4FBAA
S31508001650E5E7002001A9FFF703FDE0E71B4BD3F8F8
S31508001660003103F00303022B07D0032B09D0012B0B
S315080016700BD1FFF7FDF80323C3E7FFF755F9092355
S31508001680BFE701F0CAFE0823BBE70123B9E700203C
S3150800169001A9FFF777FBC2E7002001A9FFF792FC33
S315080016A0BDE7002001A9FFF7B1FCB8E7002001A9B2
S315080016B0FFF7C6FBB3E7002001A9FFF7F9FBAEE782
S315080016C0184601A9FFF73AFBA9E700BF00800050BA
S315080016D01B3C00084FF48012034B5A664FF48032C5
S315080016E0024B9A62704700BF009000500050005AA3
S315080016F0036870B50F2B044604D940F64631814875
S3150800170001F093FE63680F2B04D940F649317D48F2
S3150800171001F08BFEA3680F2B04D940F64C317948AB
S3150800172001F083FE237B0F2B04D940F64F31754811
S3150800173001F07BFE637B0F2B04D940F652317148CA
S3150800174001F073FEA37B3F2B04D940F655316D4853
S3150800175001F06BFEE37B3F2B04D940F6583169480C
S3150800176001F063FE2369032B04D940F65B31654813
S3150800177001F05BFE6369032B04D940F65E316148CC
S3150800178001F053FEE369032B04D940F661315D4845
S3150800179001F04BFE8020FFF769FE032800F09180D8
S315080017A04FF48012584B594D5A6645F60E034FF0C2
S315080017B0A062C5F88030564B9A624FF4803203F522
S315080017C080539A62AB6DDA03FCD4AE6D16F0804690
S315080017D0FBD1D4E900231B0543EA0263E27B4D48AB
S315080017E01343227B43EA0243627B43EA0233A27B2A
S315080017F043EA82132B61AA69D4E904131B0643EA58
S31508001800816302F000421343A27E4FF44061134302
S31508001810227E43EA0243627E43EA0223AB614FF427
S31508001820006201F087FEE1692B6A00290CBF0022DD
S315080018300822E07E23F00F0343EA010343EA80030C
S3150800184043EA0203314A344D13623BD194F82430FB
S31508001850916A94F82000DB000D4043EA401394F89F
S3150800186021102B4343EA011343F4803393622B4B35
S31508001870916D33EA0101FBD14FF0807124488162F2
S315080018801369A56823F4700343EA055313614FF0FF
S315080018900043836194F822300BB9214B996294F87E
S315080018A023303BB94FF480321D4B9A62174A936D29
S315080018B05B00FCD494F825301BB1144B194AC3F8C5
S315080018C0802070BD022908D116614FF47F419661C8
S315080018D015484FF4085201F02DFE0C4994F82230B1
S315080018E08A6A94F820001B06154043EA401394F8C8
S315080018F024202B4343EAC20394F8232043EA0243F5
S315080019008B62D7E71B3C0008009000500040005A45
S315080019100050005A3840005AC7FFFEFE0300010077
S315080019200060005AF1A7FFFF3440005A014B93F9B3
S315080019300000704794100020436810B5072B044632
S3150800194004D940F67C512A4801F06FFDA368032BA1
S3150800195004D940F67E51264801F067FD2378032B0B
S3150800196004D94FF45861224801F05FFD94F901301B
S31508001970002B04DA40F682511D4801F056FD4FF45B
S3150800198000011C4A637851664FF4D151022002F5D2
S31508001990B832516218494F2B48604FF0010028BFF2
S315080019A04F2301F5805148601169C903FCD4217899
S315080019B043EA01235361D4E901131B0143EA0123D6
S315080019C0617B0B43217B43EA41039360E37BA17B65
S315080019D01B0143EA4113617C0B43217C43EA410323
S315080019E05360A37C13B16FF4D153536210BD00BF8B
S315080019F01B3C00080090005000100250014B188054
S31508001A00704700BF92100020014B1880704700BF36
S31508001A1090100020B0F5207F10B565D00ED8B0F52F
S31508001A20007F4FD003D800B3B0F5C07F1DD040F279
S31508001A30FF21BDE81040344801F0F7BCB0F5607FDF
S31508001A40F5D14C1E012C06D9042904D040F2E22116
S31508001A502D4801F0EAFC2D4AD2F8803023F03003F5
S31508001A6043EA0413C2F8803010BD102901F1FF348F
S31508001A7004D8274B23FA01F1CB0704D440F2B62148
S31508001A80214801F0D2FC01F066FD01F072FD4FF429
S31508001A908031204B1D4A1967136F23F4704343EABC
S31508001AA004331367FEF7CEFE0446FFF799F8C0F134
S31508001AB00201204601F057FD00F03EF8BDE810404F
S31508001AC0FFF7C4BC4C1E1F2C04D940F2F3210E4864
S31508001AD001F0ABFC0D4BD3F8901021F0F85141EA18
S31508001AE00461C3F89010BFE74C1E012C04D940F2DC
S31508001AF0F921054801F099FC044B196F21F480611E
S31508001B0041EA84211967AFE71B3C000800800050B2
S31508001B10160101000090005008B50121022000F0CE
S31508001B2049F801F018FD01F024FD4FF48032014B0D
S31508001B301A6708BD0090005008B54FF4C070FFF74B
S31508001B404DFBBDE80840044988428CBF02210121AB
S31508001B504FF42070FFF75EBF80F0FA0238B5C5B2C1
S31508001B604B2D044604D940F21631074801F05DFCB6
S31508001B70064B640953F8240005F01F05E840C043E6
S31508001B8000F0010038BD00BF473C000800E100E056
S31508001B90024A536B0342FCD1704700BF004009500C
S31508001BA0034A0179D36E23F030030B43D36670479B
S31508001BB0004000502DE9F0410446264BD3F8842016
S31508001BC0D006FBD4D3F88430C3F381139C423ED0AD
S31508001BD0FEF71EFE012C05460BD11F4B984204D971
S31508001BE040F261711D4801F020FC0121284601F0F0
S31508001BF0BAFC01F0D8FC4FF00072194B07465A663A
S31508001C00204601F0E0FC4FF48063124E621E9340BA
S31508001C10DFF848803367736E9A0103D4D6F88430A8
S31508001C209B060AD5384601F0C2FC022C0FD128467D
S31508001C30BDE8F041002101F096BCD6F8843099063B
S31508001C40E9D540F26F71404601F0EFFBE3E7BDE8E6
S31508001C50F08100BF00400050005A6202743C000840
S31508001C600060005007B518B90191FEF7D1FD01993A
S31508001C70064B1B7843B1064B984205D8012003B0A2
S31508001C805DF804EBFFF796BF0220F8E75313002030
S31508001C90005A62024FF0004238B5244B244C5A666B
S31508001CA04AF6CD33656C014605F00105236430BB61
S31508001CB00120FFF76DFF6368DB0708D4002415B120
S31508001CC01B4B1C4A1A6401F07FFC204638BD1A4B90
S31508001CD058600846194B226BD20705D4984201D1A1
S31508001CE00724ECE70130F6E79842E7D1F8E7013236
S31508001CF0236B13F0080305D08A42F8D1F0E70022D7
S31508001D000E49F5E78A42EBD020210B4A9162012160
S31508001D10A2F5805251600649084A886A800603D4AB
S31508001D209342DDD00133F8E79342DEE70090005096
S31508001D30004009503254FFFF0060095040420F002E
S31508001D404FF0004238B5164B01465A664AF6CD336F
S31508001D50144C154A656C236443780B205B0043F0EA
S31508001D600103D363FFF714FF63688A7823F4F873D3
S31508001D7043EA02136360CA784B7943EA0223A360F5
S31508001D800A798B7943EA022323610878FFF782FFF1
S31508001D90EB0744BF054B236401F016FC012038BD50
S31508001DA00090005000400950004000503254FFFF98
S31508001DB00F2870B5044604D940F6FC51134801F0C3
S31508001DC034FB4FF00042124B12495D6E03F5805307
S31508001DD05A664AF6CD334E6C80200B64FFF7D8FE60
S31508001DE00B6A23F00F030F2C94BF234343F00F0312
S31508001DF00B62F30744BF084B0B64002DA2BF4FF0DC
S31508001E000042064B5A6601F0DFFB70BD743C0008C1
S31508001E1000800050004009503254FFFF00A00050D7
S31508001E201F2970B504460D46164603D99121074861
S31508001E3001F0FBFA36B104F58054012101FA05F5E3
S31508001E40256070BD04F50054F7E700BFA03C000804
S31508001E5038B50D460446B0B1012817D0022817D068
S31508001E60032803D13F23EB40DB0704D440F22D417E
S31508001E70094801F0DAFA302001214443074B01FAF8
S31508001E8005F51D5138BD40F2FF73ECE70F23EAE76D
S31508001E9040F2FF33E7E700BFB03B000840D00350ED
S31508001EA038B50D460446B0B1012817D0022817D018
S31508001EB0032803D13F23EB40DB0704D440F2FE316D
S31508001EC0094801F0B2FA302001214443074B01FAD0
S31508001ED005F51D5138BD40F2FF73ECE70F23EAE71D
S31508001EE040F2FF33E7E700BFB03B000840E003508D
S31508001EF02DE9F3470D4614461E4681469DF828806F
S31508001F009DF82C70002843D0012844D0022844D0DC
S31508001F10032803D13F23EB40DB0703D4BF2129481D
S31508001F2001F083FA85EA040333F0030303D0C121E1
S31508001F30244801F07AFA072C4FF0030105F003054F
S31508001F402ED84FEA840A01FA0AF11F4809FA0AF25A
S31508001F50019101F03AFB01991C4805FA0AF201F0D1
S31508001F6034FB324621461A48FFF75AFF42462146B5
S31508001F701848FFF755FF0123174AA340C2F8203433
S31508001F8021463A46154802B0BDE8F047FFF748BF74
S31508001F9040F2FF73BFE70F23BDE740F2FF33BAE70E
S31508001FA0A4F1080A4FEA8A0A01FA0AF10C4809FA62
S31508001FB00AF2019101F009FB01990A4805FA0AF2A9
S31508001FC0CDE700BFCC3C000800C4035008C403504A
S31508001FD010C4035014C4035000E0035024C4035033
S31508001FE004C403500CC403502DE9F0410D461746AE
S31508001FF098460446002835D0012836D0022836D01F
S31508002000032803D13F23EB40DB0704D44FF4B07118
S315080020101D4801F00AFA37B129462046B8F1000FE3
S3150800202028D0FFF715FF0F21072D04EB440688BFBC
S31508002030A5F108034FEA0616144895BFAB009B00A6
S3150800204004360C3607FA03F29940304401F0BDFA1B
S31508002050BFB929462046B8F1000F0ED0BDE8F041B9
S31508002060FFF7F6BE40F2FF73CDE70F23CBE740F24A
S31508002070FF33C8E7FFF714FFD5E7BDE8F041FFF7E0
S315080020800FBFBDE8F08100BFCC3C000830C003504C
S31508002090242808B515D820280AD8012819D00C28CC
S315080020A019D068B10E48B62101F0BFF9002007E043
S315080020B02238022803D8DFE800F010080A000120B9
S315080020C008BD3228EED10620FAE70420F8E70520F5
S315080020D0F6E70320F4E70720F2E70220F0E700BF5F
S315080020E0F93C00080C2810B50C4617D003D801286F
S315080020F00FD0204610BD242808D82028F9D9042C4A
S31508002100F7D9F6210B4801F090F9F2E73228F6D014
S31508002110EFE70229EDD940F20711F3E7022904D0C7
S31508002120032904D04FF48B71ECE70024E1E701247E
S31508002130DFE700BFF93C0008F8B50546C2F30627F5
S3150800214002F0070479B90B2804D94FF4FC71114839
S3150800215001F06BF9104B44EA072444F44024063591
S3150800216043F82540F8BD032804D940F2FD11094873
S3150800217001F05BF921463846FFF7B4FF06463846B4
S31508002180FFF786FF044B46EA0020123543F8250080
S31508002190E8E700BFF93C000800800350B2F5805F0D
S315080021A070B505460E4614460DD34FF40B71084814
S315080021B001F03BF924F0030202F1A04202F5603275
S315080021C026B9156001E0002AF4D170BD2D02F8E7A2
S315080021D0F93C000870B506460C46154622B940F289
S315080021E08E210C4801F021F924B94FF42070FEF72E
S315080021F0F5FF04466D00013CB4FBF5F4064B2502D9
S3150800220013EA042304D040F2B321024801F00DF981
S31508002210F56170BD253D0008070080FF124B10B51B
S315080022209842044604D040F24241104801F0FDF8B5
S31508002230012104F58053596040F6AA6341F205026C
S31508002240636100230A48A360E365E26004F500526F
S315080022502361E361E36490640348A365844204BF91
S3150800226023656365516010BD00C00550253D000813
S31508002270FFFF010038B52D4B044698420D4604D0A1
S3150800228040F269312A4801F0D0F82046FFF7C6FF28
S315080022900122A97B04F580535A602A8AA36800297B
S315080022A014BF4FF48061002142F0010213432A7DD6
S315080022B00B43002A14BF4FF000520022A360A36804
S315080022C01343A360AB7C5BB1184B9C4202BFEA7C0C
S315080022D0A3F51033C3F8D421E36D43F08003E36517
S315080022E02B7B2046D5E9011243F48053E360FFF7C0
S315080022F071FF6B7B0BB1102363616B7D1BB1A36808
S3150800230043F48033A360AB7D1BB1A36843F4004359
S31508002310A360EB7D2A7E1B07120503F0E04302F457
S31508002320E0021343A3652B78636138BD00C00550EE
S31508002330253D00080123064A411100F01F0003FA53
S3150800234000F052F82130184342F82100704700BFC8
S31508002350F0120020044B1B681BB1044B03600020DD
S3150800236070470120704700BF001300204413002067
S3150800237070B50D4C246884B10C4C85182688B54276
S315080023800DDC6688CD18B54209DC52B14BB1A08088
S315080023900020E1802281638170BD0120FCE70420D2
S315080023A0FAE70520F8E700BF0013002044130020D1
S315080023B02DE9F74F0093444B1B68002B7FD04FF055
S315080023C0010BDFF80C910D9FB9F80630B9F80A2011
S315080023D05D181A441FFA82FAADB21FB9384603B01F
S315080023E0BDE8F08FABB29A456BD9384AB9F80840C0
S315080023F002EB0511241A009ABC4228BF3C46161E59
S3150800240018BF0126B9F8043076420344072CA7EB17
S3150800241004079BB2F6B221D81C44BEB9A34217D210
S31508002420DE0803F007020BFA02F08A5D013322EA9E
S3150800243000028A559BB2F1E7D8080E5C03F0070242
S315080024400BFA02F2324301330A549BB2A342F3D386
S315080024502846FFF76FFF01350020BEE74FEAD30C89
S3150800246001EBD30813F0070310D00BFA03F211F8A7
S315080024700CE0D2B2501E52420EEA0000324010431F
S31508002480083B01F80C0008F101081C44E20809D0D1
S3150800249031464046019201F031FB14F00704019AD7
S315080024A0D6D090440BFA04F498F80030E4B26242AD
S315080024B0013C134034401C4388F80040C8E7012714
S315080024C08CE704278AE700BF001300205413002076
S315080024D04413002037B5124D2B68FBB9FEF782F876
S315080024E0044618B10124204603B030BDFEF76EF845
S315080024F028600028F6D0028841880A4B20461A80B0
S315080025001A814A4359809C80DC805981CDE9004272
S31508002510234622462146FFF74BFFE4E70024E2E77D
S3150800252000130020441300202DE9F8430023012559
S315080025301A461A4FDFF86C803C68DFF86490D8F8C2
S315080025400000D61841888E4207D3FBB91022002115
S31508002550124801F0D3FA002012E0E10708D501334A
S31508002560D118C9060ABF57F8254064080135E6E7B9
S3150800257053B109EB0211FDF7CDFF034610B1072051
S31508002580BDE8F883721CEBE70132E9E7044901EB81
S315080025900211FDF7BFFF0028D8D0F0E7F01200209F
S315080025A0541300200013002030B5054687B000B349
S315080025B000226FF07F43C0E9012301A8FFF7CAFE96
S315080025C0044698B9019BCDE902001A882B605B88FE
S315080025D0013A013B284602A90492059301F056F8F0
S315080025E0044618B92846044901F0DBF9204607B025
S315080025F030BD0524FAE700BF84400008054B9A68F9
S315080026009107FCD45A689207F9D4DA69002AF6D1F8
S31508002610704700BF00800A5008B5FFF7EFFF012298
S31508002620024B03F580514A601A6108BD00800A50C2
S31508002630074B5A68012A0AD15A68D20702D5DA69BD
S31508002640002AF9D102221A610122024B5A60704708
S3150800265000800A5000A00A5010B5064CFFF7CEFFBE
S315080026606368012B03D1FFF7E3FFFFF7C7FF037882
S31508002670E36010BD00800A5018B17121104800F0BF
S31508002680D4BE4A680B7812B1127843EAC2034A7874
S31508002690002A14BF0222002213438A6812B1127854
S315080026A043EA82138A78002A14BF042200221343BD
S315080026B0CA6812B1127843EA4223024A9364704701
S315080026C0B443000800800A5020B14FF482710348D1
S315080026D000F0ABBE024B5964704700BFB443000814
S315080026E000900A5020B14FF4A071034800F09DBE37
S315080026F0024B5964704700BFB443000800A00A5053
S3150800270020B14FF4BE71034800F08FBE024B196426
S31508002710704700BFB443000800A00A5008B530B19E
S31508002720044840F2B71100F080FE002008BD024BB5
S31508002730186CFBE7B443000800800A5008B548B196
S31508002740084840F2662100F070FE002008BD064BDE
S31508002750D86CFBE70029FAD00129F7D1024B186D8E
S31508002760F4E700BFB443000800800A5050B14FF4A4
S315080027704171074800F059BE064BDA647047054BAD
S315080027801A6570470029F7D00129F8D0704700BFAD
S31508002790B443000800800A5007B5094B18689A88A0
S315080027A09B7900906846ADF804208DF80630FFF74F
S315080027B0C7FA0620FFF7FCFA002003B05DF804FB11
S315080027C0F043000813B50024064A6846536F43F0E1
S315080027D00103536700948DF80440FFF7E1F920469A
S315080027E002B010BD0040005030B58BB06C46174D96
S315080027F00FCD0FC40FCD0FC495E8030084E803007E
S31508002800134BD3F84C21120318D4D3F85041E4B231
S315080028108DF81940FFF78AF8204480F308008DF8F0
S3150800282018000C48FEF72AF86846FEF761FF4FF4D1
S31508002830FA70FFF7E9F800200BB030BD064B1C888C
S315080028404FF6FF739C4208BF6A24E1E7F843000885
S315080028500080E00FC01753020001E00F30B5084DA5
S3150800286087B001AC0FCD0FC42B6801A82360FFF712
S3150800287063F86420FFF7C2F8002007B030BD00BF38
S31508002880204400086FF00402502110B50A480B4C8A
S3150800289012F0800FD3B21BBF03F00F03043BA3183B
S315080028A01B1802F101020CBF83F8001319764C2A93
S315080028B0EED1002010BD00BF00ED00E000E100E011
S315080028C030B50F4C41612368ABB92060836011E0D5
S315080028D0891A9A681D4641612AB113465A698A427D
S315080028E0F6D955B11A461346A860836013B15A69DA
S315080028F0511A596130BD0025F0E72060F5E700BFA1
S315080029001013002010B500F00FFA0A4C0A4B19688C
S315080029102368C31A01B10BB9206010BD4A699A42EF
S315080029203ABF9B1A0022D21A4A6128BF0023896837
S31508002930F0E700BF041300201013002038B5134D2C
S315080029402B685B6993B1124A022014681C4401F093
S315080029508CF8204600F018FA00230E492A680B70F6
S31508002960D088800709D501230B7038BD022001F0F5
S315080029707CF8022000F056FAEEE79268002AF4D0B6
S3150800298050690344012BEBD9EFE700BF1013002071
S3150800299004130020551B0020F8B516469DF81C2088
S315080029A0BDF820700271069A0446026000220D46A0
S315080029B0C0E903368260C780C6B900F0B5F9284475
S315080029C0A0613DB9E368656113B12046216898475F
S315080029D056B13546062F0DD1104A2846936A43F05C
S315080029E00803936200F0A8F90020F8BD00F09CF9EE
S315080029F03044E5E700F0D7FD0646FFF783FF294692
S31508002A002046FFF75DFF064B1B68A34201D1FFF77F
S31508002A1095FF304600F0CBFDE6E700BF0040005AC0
S31508002A201013002000220C490B687BB183420AD19F
S31508002A3083687AB1936083681BB15A6941690A440D
S31508002A405A61002070471A469B68EEE70028EFD0C7
S31508002A50022070470B60EEE71013002070B500F0F7
S31508002A60A9FD144E05463478FCB9134B1C60134B6C
S31508002A701C60134B1C8000F00FF9012000F0F5FFD5
S31508002A8001F016F80F4B0246186020B9284600F0E8
S31508002A9097FD232070BD234640F2E7310A4800F02F
S31508002AA087FA0A4B186001233370284600F088FD20
S31508002AB00020EFE7541B0020101300200413002009
S31508002AC0501300200C13002018FCFFFF08130020E9
S31508002AD02DE9F0410546F8B100F065FD0F4F0646B1
S31508002AE0FFF710FF2846D7F80080FFF79BFF04463C
S31508002AF028B1304600F05BFD2046BDE8F081A845C8
S31508002B003B6803D123B1FFF719FFF2E7002BF0D199
S31508002B10022000F071F9ECE72224EDE710130020FB
S31508002B20014B1868704700BF0C130020C2072DE937
S31508002B30F84F04460BD54F4A138801339BB21380CE
S31508002B40FFF7E0FE4C4B1B680BB1FFF7F7FEA30738
S31508002B5040F18E8000F02EFD4FF0000A05465646DD
S31508002B60FFF7D0FED046444FDFF814913C680CB10D
S31508002B7063698BB10022414B012E1A7003D11AF0FA
S31508002B80020F18BF1E70002C62D0FFF7D7FE28462A
S31508002B90BDE8F84F00F014BD23461A792179914211
S31508002BA088BF1C469B6813B15A69002AF5D0284687
S31508002BB000F006FDD4F810A0BAF1000F4CD000F0D2
S31508002BC0B3F8A269851AEB17AA4578EB030344DA2A
S31508002BD0236913440122A36123691BB312BBEB17B4
S31508002BE0BAEB050563EB4303002B04DA40F22151E7
S31508002BF0484600F01AFCA38B33B1E28B13449BB210
S31508002C00B3F57A7F1CD2E38300F0D4FC82462946CA
S31508002C102046FFF755FEA369226950461344A3616F
S31508002C2000F0CEFCE368B4F806A0013613B12046DE
S31508002C302168984700F0BEFC0546FFF763FE95E756
S31508002C40A3F57A73E383A369013D013BA361DBE73F
S31508002C50022000F0D1F89AE7554600F0ABFC83460F
S31508002C602046FFF7DFFE584600F0AAFC0022B3E72D
S31508002C70BDE8F88F5013002010130020561B0020C3
S31508002C8034440008034B5A68D20702D5DA69002A89
S31508002C90F9D1704700800A5030B501250024042375
S31508002CA087B029463E208DF80430CDE903448DF8D7
S31508002CB00040ADF808508DF80A400594FEF762FA10
S31508002CC06846FFF7C9FC01AB204602A90493ADF894
S31508002CD00840FFF7D1FC20460F21FFF703FD0F211F
S31508002CE02046FFF70DFDFFF797FCFFF7CBFF4022C5
S31508002CF00B4B9C610B4BC3F888219A603B202946F5
S31508002D00FEF740FA2146284640F60172FFF714FA04
S31508002D104FF49C7221462846FFF740FA07B030BDAB
S31508002D2000800A5000E100E008B5FFF7ABFF014B51
S31508002D30986908BD00800A5038B5044600F033FC8F
S31508002D400546FFF79FFF0E4B022C9A694FF00101CB
S31508002D508CBF12190332B2F1FF3F38BF013A002087
S31508002D60FFF704FD284600F022FC064A137833B123
S31508002D7003498B6C43F002038B640023137038BD40
S31508002D8000800A5095100020F8B5044600F00BFCA8
S31508002D90FFF778FF164B07469D6900F062FE064668
S31508002DA00020FFF7BBFC830704D4731B032B01D851
S31508002DB0AE420FD10021631B022B98BFEC1C0846BC
S31508002DC0B4F1FF3F2CBF2246621EFFF7CFFC02205C
S31508002DD000F04BFE384600F0EAFB064A137833B19A
S31508002DE003498B6C43F001038B6400231370F8BD11
S31508002DF000800A5096100020830700F0010109D5CB
S31508002E000122064B41F002011A70054A936C23F021
S31508002E10010393640020FFF765BC00BF96100020ED
S31508002E2000800A50830742BF0222014B1A6470478A
S31508002E3000900A5010B50446FDF704FD4FF47A7267
S31508002E409042B0FBF2F105D23621BDE810400C489D
S31508002E5000F0EBBA0B4BB3FBF1F30B49884201D9EF
S31508002E603C21F2E702FB04F0B0FBF3F0022806D996
S31508002E70BDE810400323B0FBF3F0FDF779B910BDA8
S31508002E807444000840420F00E7CD9A3BF0B585B080
S31508002E9000F081FA18B13C21254800F0C6FA002056
S31508002EA0FFF718FB18B14021214800F0BEFA214867
S31508002EB0FFF77AFB18B144211D4800F0B6FA6FF007
S31508002EC07F420023052501271A4C1B4E2046C4E9DC
S31508002ED0012300F0ABFB2046184900F062FD32687A
S31508002EE00023511C31602046CDE90157144900954D
S31508002EF0D2B200F069FD32680023D119316020464C
S31508002F00CDE901570F490095D2B200F05DFD326850
S31508002F100023D11931602046CDE901570A490095A9
S31508002F20D2B200F051FD05B0BDE8F040FFF7FCBA9B
S31508002F30AC4400081813002014130020543D000860
S31508002F40B9440008CB440008E044000810B504461C
S31508002F5000F071FA012822D1114B9C4209D10022B6
S31508002F60104B11481A6000F061FBBDE81040FFF7EE
S31508002F70DBBA0E4B9C42F8D10A4C23687F2B04DD42
S31508002F8000230948236000F051FB0A230021226828
S31508002F90054800F0DDFB236808332360E5E710BD2C
S31508002FA0343B000814130020181300204C3B00087B
S31508002FB053B94AB9002908BF00281CBF4FF0FF3192
S31508002FC04FF0FF3000F082B9ADF1080C6DE904CE80
S31508002FD000F006F8DDF804E0DDE9022304B07047E6
S31508002FE02DE9F04F099D04460F46002B48D18A4229
S31508002FF0944661D9B2FA82F343B1C3F120019F40E6
S3150800300002FA03FC9C4020FA01F10F434FEA1C41E7
S315080030101FFA8CFE220CB7FBF1F601FB167706FBAE
S315080030200EF042EA0742904208D91CEB020206F16A
S31508003030FF3702D2904200F237813E46121AA4B2F6
S31508003040B2FBF1F001FB102200FB0EFE44EA02443B
S31508003050A64508D91CEB040400F1FF3202D2A645A6
S3150800306000F21C81104640EA0640A4EB0E04002636
S315080030701DB1DC400023C5E900433146BDE8F08FA9
S315080030808B4209D9002D00F0FD800026C5E9000114
S3150800309030463146BDE8F08FB3FA83F6002E4BD1A1
S315080030A08B42C0F0F280824240F2EF803046002D1B
S315080030B0E3D0C5E90047E0E702B9FFDEB2FA82F3DA
S315080030C0002B40F09D80891A4FEA124E97B20126CE
S315080030D0200CB1FBFEF20EFB121140EA014107FB80
S315080030E002F088420FD91CEB010102F1FF382CBF10
S315080030F04FF001094FF00009884203D9B9F1000FD2
S3150800310000F0CF804246091AA4B2B1FBFEF00EFBCE
S31508003110101100FB07F744EA0144A74208D91CEB43
S31508003120040400F1FF3102D2A74200F2B480084637
S31508003130E41B40EA02409BE7C6F12007B34001FAC8
S3150800314006F422FA07FCF940B2404CEA030C20FACE
S3150800315007F34FEA1C491C431FFA8CFE00FA06F3D4
S31508003160200CB1FBF9F809FB181140EA014108FBEC
S315080031700EF088420FD91CEB010108F1FF3A2CBF6B
S315080031804FF0010B4FF0000B884203D9BBF1000F3B
S3150800319000F08D80D046091AA4B2B1FBF9F009FBFC
S315080031A0101100FB0EFE44EA01418E4507D91CEBBF
S315080031B0010100F1FF3401D28E457FD8204640EA4E
S315080031C00840A1EB0E01A0FB029841454C46C646B5
S315080031D002D306D14B4504D20138B9EB020468EB99
S315080031E00C0E002D70D01A1B61EB0E0122FA06F3A5
S315080031F001FA07F7F14000261F43C5E900713CE7CD
S3150800320002FA03FCC3F1200001FA03F221FA00F6E0
S315080032104FEA1C4E24FA00F11FFA8CF79C40114322
S31508003220B6FBFEF00A0C0EFB106642EA064200FBED
S3150800323007F696420ED91CEB020200F1FF382CBFA6
S315080032404FF001094FF00009964202D9B9F1000F73
S3150800325031D04046921B89B2B2FBFEF60EFB16220F
S3150800326041EA024106FB07F28A4207D91CEB010133
S3150800327006F1FF3801D28A4223D84646891A46EA19
S31508003280004625E72E462846F7E6841A61EB03032F
S3150800329001201F460BE76444023849E764440238B4
S315080032A0E1E6023A61442EE7023E6244C6E6A8F128
S315080032B0020861446FE702386244CBE7023861448A
S315080032C07DE7023E6144D9E72E46D6E6704700BF41
S315080032D008B5074B044613B1002100E000BF054BB3
S315080032E01868836A03B19847204600F029F800BF9A
S315080032F000000000F844000870B50D4D00260D4C7E
S31508003300641BA410A64209D10B4D00260B4C00F0F5
S3150800331005FC641BA410A64205D170BD55F8043BF4
S3150800332001369847EEE755F8043B01369847F2E729
S315080033309810002098100020981000209C1000205B
S31508003340FEE700BFFFF7A2BD00F0D7BB00F01AB832
S3150800335008B5FDF74FFBFDF7C9FBFDF70DF8BDE80E
S31508003360084000F030B808B500F00AF8BDE8084093
S31508003370FFF774BB704770477047704770477047D0
S315080033800F20704708B50023042219460120FEF7CE
S315080033902BFE002008BD08B50422012309210220BE
S315080033A0FEF722FE002008BD08B501213A20FDF7E8
S315080033B0E9FEFFF7CBFFBDE80840FDF733B9012169
S315080033C03A20FDF7DFBE08B5082000F09AF8BDE8F8
S315080033D00840082000F0A1B870B50C4606688D189C
S315080033E0AC4201D1002070BD14F8011B304691FA99
S315080033F0A1F1090E00F00BF9F2E7026893699B0642
S31508003400FCD5704710B50468A3691B0600D410BD27
S31508003410204600F0ECF8F7E7FEE7002070474FF487
S31508003420004070474FF47A707047FEE7436803B16F
S31508003430184722207047436903B11847FF20704791
S3150800344038B50D680C462B78022B0CD0697928798B
S31508003450FDF770FAB0FA80F0400928702046BDE8FA
S315080034603840FFF773BD38BD03681878704710B544
S3150800347004682378022B15D061792079FDF75AFA6A
S31508003480A279012A15D1003818BF01204FF6E0713C
S31508003490638840EA430363F03F039BB28B4202D141
S315080034A02270638010BD4FF6DF729342F9D1002275
S315080034B0F6E7002AF6D1B0FA80F040092070F1E765
S315080034C003681A78022A03D100225A80FDF75CBAEB
S315080034D0704713B504682378022B10D0A379022B02
S315080034E00BD100216079FDF719FB00236279207959
S315080034F01146CDE90033FEF7FBFC0223237002B028
S3150800350010BD4FF060420123D2F8001E03FA00F006
S315080035100843C2F8000E002070474FF060410122B0
S31508003520D1F8003E02FA00F023EA0003C1F8003E93
S315080035300020704770B5054614460E4600F033F86D
S31508003540296881EA040202EA06044C402C60BDE8B8
S31508003550704000F02CB808B5FDF786F9BDE80840BC
S315080035600021FDF7E3BD0029CCBF01210021FDF7AD
S31508003570DDBD02214FF42070FEF74CBA10B5FDF7F9
S3150800358061F90446FDF72CFBC0F102012046FFF75E
S31508003590EAFF01210020FEF765FBFEF7CDFABDE83C
S315080035A01040FDF753BFEFF3108072B6704700B9AD
S315080035B062B67047EFF31180302383F311887047A2
S315080035C080F3118870477047704770B505461446F2
S315080035D00E46FFF7E8FF296881EA040202EA0604B4
S315080035E04C402C60BDE87040FFF7E1BF7047836927
S315080035F01B06FCD5406AC0B2704783695A06FCD5DB
S31508003600C16383699B06FCD5406AC0B2704783696B
S315080036105B06FCD5C163704730B1002102680846D5
S3150800362053881288FEF7A4BE0520704737B50446AE
S31508003630A8B14568FFF7F0FF014668B92268138903
S31508003640528953430193EBB20093C5F30742C5F37E
S315080036500723FEF7ADFE0146084603B030BD052137
S31508003660FAE710B470B1836942698489018A013323
S315080036700132121B5B1A20469BB25DF8044B92B2CC
S31508003680FEF776BE05205DF8044B7047F0B4D0B15E
S31508003690C9B10E688C68A64218DA4D68CA689542A0
S315080036A014DA002E14DB002D12DB01680F88BC42E9
S315080036B00EDA49888A420BDAC0E90365C0E9054291
S315080036C0F0BCFFF7CEBF0520F0BC70470420FBE72F
S315080036D00320F9E710B5040C0C70010A1170187074
S315080036E010BD73B50D461646044690B10C3000F071
S315080036F07AF880B10123A2680193D3B20093B1B2DC
S31508003700C2F30723A8B2C2F30742FEF751FE02B07E
S3150800371070BD0520FBE70120F9E773B50D4616468F
S315080037201C4688B10C3000F05EF878B1012301938D
S31508003730E3B20093C4F30742C4F30723B1B2A8B2B5
S31508003740FEF736FE02B070BD0520FBE70120F9E75B
S31508003750F0B51646054685B0002840D00269B24243
S315080037603FDC8269B2423CDB9942C2BF0A4619462F
S31508003770134642698A4234DBC4689C4231DC8C4277
S31508003780B8BF0C469A42D4BFC4EB0207C4EB030782
S315080037900137A0B20123BAB2B1B2FEF7E9FD044679
S315080037A0D0B9A8680DF10F030DF10E020DF10D0148
S315080037B0FFF790FF9DF80F302146204600939DF8AD
S315080037C00D209DF80E300197FEF7F2FD044618B954
S315080037D02846FFF746FF0446204605B0F0BD0524F7
S315080037E0FAE70124F8E778B103688B420BDC8368B3
S315080037F08B4208DB4368934205DCC0689042B4BF3D
S31508003800002001207047002070472DE9F04F85B051
S3150800381090469DF8382004460292002800F08180E0
S31508003820A1F120025E2A7ED890F828208DB2022ABD
S315080038301AD13A291AD020291AD0303DADB2228C95
S31508003840AA4270D94FF0000BE2695E4601921A4609
S3150800385094F825101FFA8BF399420BD8B6FA86F01E
S31508003860400905B0BDE8F08F203DE7E70A25E6E701
S315080038700B25E4E794F82230012B05D0022B1DD046
S31508003880019B53F825A002E0019B13F805A04FF011
S31508003890000994F824301FFA89F7BB4212D894F825
S315080038A0243094F827100B449F4229DB94F82330E0
S315080038B00BF1010B1D44ADB20132C9E7019B33F888
S315080038C015A0E4E71AF0010F0FD0204608EB09010E
S315080038D00392FFF706FF0128C3D8039A00B90136F9
S315080038E04FEA5A0A09F10109D3E7029B002BF7D0E0
S315080038F02046636808EB09010392FFF70EFFEAE723
S31508003900029B5BB12046636808EB07010392FFF749
S3150800391004FF0128A5D8039A00B901360137BFB2BA
S31508003920BDE705209DE702209BE72DE9F74F0C9F91
S31508003930984605469DF834A078B371B390F82830B8
S315080039406BB30C46C3464FF000098E18B44205D136
S31508003950B9FA89F0400903B0BDE8F08F14F8011BE5
S315080039600A2907D195F82530C3463B4495F82670B1
S315080039701F44EBE73B465A462846CDF800A0FFF71A
S3150800398044FF0128E7D808B909F1010995F8243058
S3150800399095F8272013449B44D8E70520DBE7022047
S315080039A0D9E708B520B11C3021B9102200F0A6F8D5
S315080039B0052008E001F1100351F8042B994240F85C
S315080039C0042BF9D1002008BD2DE9F74305461C460E
S315080039D008469146019100F099F895F8252095F842
S315080039E026C095F8243094440B9A012C00FB03F664
S315080039F009FB0C220A9F9DF8308001990CD0022CF5
S31508003A000FD00023CDE90A28024628463B4403B0D6
S31508003A10BDE8F043FFF789BF2B681B889B1B5B0833
S31508003A20F0E72B681C88A31BECE7F0B50D46164695
S31508003A301F46044685B090B10023C361FFF748F8D6
S31508003A40BDF82C302A4602939DF828302946CDE940
S31508003A50007320463346FEF79FFF05B0F0BD2220CF
S31508003A60FBE700210846FEF769BE00F0010183075F
S31508003A7048BF41F002010020FEF726BE38B5FFF721
S31508003A8099FD04460020FEF749FE830700F001056C
S31508003A9048BF45F0020500F003010020FEF730FE9E
S31508003AA02846FFF743F82046BDE83840FFF788BDAB
S31508003AB03E20FDF793BB08B5FCF712FCFFF748FC60
S31508003AC0FFF751FCFFF756FCBDE80840FFF753BC6B
S31508003AD008B5FFF751FCFFF750FCFFF74FFCBDE8B0
S31508003AE00840FFF74CBC08B5FFF7E5FFFFF72AFCCF
S31508003AF0FFF7EEFFFFF728FCFAE770470244034694
S31508003B00934200D1704703F8011BF9E7034613F8FF
S31508003B10012B002AFBD1181A01387047F8B500BFE7
S31508003B20F8BC08BC9E467047F8B500BFF8BC08BC90
S31508003B309E46704780100020890900086F340008E7
S31508003B40C1340008D33400086934000888100020FE
S31508003B50890900086F340008C1340008D334000806
S31508003B6069340008050000000000000040420F000C
S31508003B700501000000000000000000000000000031
S31508003B808000800001010000E0C810003C06020029
S31508003B9000000000050000000000000040420F0081
S31508003BA00501000000000000000000000000000001
S31508003BB06765636B6F5F73646B5F342E332E312FCB
S31508003BC0706C6174666F726D2F656D6C69622F69B2
S31508003BD06E632F656D5F6770696F2E680067656332
S31508003BE06B6F5F73646B5F342E332E312F706C618D
S31508003BF074666F726D2F6472697665722F6275745A
S31508003C00746F6E2F7372632F736C5F73696D706C4C
S31508003C10655F627574746F6E2E63006765636B6F9C
S31508003C205F73646B5F342E332E312F706C6174664C
S31508003C306F726D2F656D6C69622F7372632F656D78
S31508003C405F636D752E63006765636B6F5F73646B87
S31508003C505F342E332E312F706C6174666F726D2F40
S31508003C60656D6C69622F7372632F656D5F636F7222
S31508003C70652E63006765636B6F5F73646B5F342ED5
S31508003C80332E312F706C6174666F726D2F656D6C93
S31508003C9069622F7372632F656D5F656D752E63009C
S31508003CA06765636B6F5F73646B5F342E332E312FDA
S31508003CB0706C6174666F726D2F656D6C69622F69C1
S31508003CC06E632F656D5F6275732E68006765636B3B
S31508003CD06F5F73646B5F342E332E312F706C617493
S31508003CE0666F726D2F656D6C69622F7372632F65CF
S31508003CF06D5F6770696F2E63006765636B6F5F73CF
S31508003D00646B5F342E332E312F706C6174666F725C
S31508003D106D2F656D6C69622F7372632F656D5F70A9
S31508003D2072732E63006765636B6F5F73646B5F34D2
S31508003D302E332E312F706C6174666F726D2F656D20
S31508003D406C69622F7372632F656D5F757361727428
S31508003D502E630000643D0008200301640608020083
S31508003D600100000000040A0A04030606080200000F
S31508003D70000000000E040E1F081F0C1F0E0E000088
S31508003D801000010E0E0E0F0E071F1F0E110E1C112E
S31508003D900111110E0F0E0F1E1F11111111111F0EF9
S31508003DA0000E04000200010010000C0001040801C6
S31508003DB00600000000000000020000000000000CE1
S31508003DC0040600000000000000040A0A1E13090485
S31508003DD00404040400000000110611080C01021076
S31508003DE0111106060800021110111111090101111D
S31508003DF011040809011B11111111110104111111E6
S31508003E001111100200080A00040001001000121E19
S31508003E10010000010400000000000000020000008C
S31508003E2000000002040802000000000000040A1F47
S31508003E300108050202081504000000101904100400
S31508003E400A0F010811110606041F041010111101AA
S31508003E5011010101110408050115131111111101B0
S31508003E60041111110A11080201081100080E0D0E9D
S31508003E70160E02110D060C09040B0D0E0F160D0E6B
S31508003E800711111111111F02040815000000000086
S31508003E900004000A0E04020002080E1F001F000894
S31508003EA01504080809100F040E1E00000200080871
S31508003EB016110F01110F0F1D1F0408030115151107
S31508003EC00F110F0E04111115040A0402020800004E
S31508003ED0001013011911071113040805041513110D
S31508003EE011191301021111110A1108010410080011
S31508003EF0000000000000001F10021500020815044B
S31508003F0006000004130404101F10110211100606FF
S31508003F10041F0404151F11011101011111040805DC
S31508003F200111191101150510041111150A040202CF
S31508003F3004080000001E1101111F021E11040803C7
S31508003F40041511110F1E010E02111115041E04028B
S31508003F5004080000000000000000000A0F1909000C
S31508003F6004040404040006021104021108111102D3
S31508003F7011080604080002001511111109010111A2
S31508003F8011040909011111110109091004110A1571
S31508003F901104010208080000001111111101021094
S31508003FA011040905041111110110011012190A153D
S31508003FB00A10020204080000000000000004000ABB
S31508003FC00418160008020000020006010E0E1F0E55
S31508003FD0080E0E020E060002100001040E110F0E46
S31508003FE0071F010E110E06111F11110E0116110FD2
S31508003FF0040E040A11041F0E100E001F001E0F0ED9
S315080040001E0E020E110E06090E11110E0110010FD9
S315080040100C16040A110E1F0C04060000000000000E
S315080040200000000000000000000000000000000082
S315080040300000000000000000000000000000000072
S315080040400000000000000000000000000000000062
S315080040500000000000000000000000000000000052
S315080040600000000000000000000000000000000042
S315080040700000000000000000000000000000000032
S3150800408000000000944000082003016408080200AC
S315080040900100000000186C6C10CE3808600C000097
S315080040A0000000007C307C7CC6FE7CFE7C7C000028
S315080040B070001C7C7C7C7E7C7EFEFE7CC63C78C6C2
S315080040C006C6C67C7E7C7E7C7EC6C6C6C6C6FE7C0A
S315080040D0007C10000C000600600038000600000690
S315080040E00C00000000000000000000000000003086
S315080040F018188C000000000000186CFEFC6A2C18CA
S3150800410030186C18000000C0C638C6C6C606C6C039
S31508004110C6C61818387C38C6C6C6C6C6C60606C673
S31508004120C618306606EECEC6C6C6C6C618C6C6C603
S31508004130C6C6C00C066038000C00060060000C00FD
S31508004140061830060C0000000000000018000000E9
S31508004150000000181830D60000000000001848FEBD
S31508004160162E2C181830381800000060C63060C0AB
S31508004170C6060660C6C618181C7C70C6F6C6C606ED
S31508004180C6060606C618303606FEDEC6C6C6C60605
S3150800419018C6C6C66CC6600C0C606C00043C3E3C77
S315080041A07C3C3C3C3E0000660C6E3E3C3E3C363C4D
S315080041B0186666C666667E1818306200000000003B
S315080041C00018006C7C10DC001830FE7E1C7E003067
S315080041D0C6303070FE7E7E307CFC00000E00E0703B
S315080041E0F6FE7E06C61E1EF6FE18301E06D6F6C655
S315080041F07EC67E7C18C6C6D638FC300C1860C6004B
S315080042000060660666660C66661830360CD6666604
S3150800421066666E067C6666C63C66300C0060000004
S3150800422000000000000000FED0E866001830387E66
S315080042301C7E1C18C63018C0C0C0C618C6C01818C0
S315080042401C7C703076C6C606C60606C6C618303644
S3150800425006C6E6C606B6C6C018C6C6FE6CC0180CA4
S3150800426030600000007C6606667E0C7C6618301E90
S315080042700CD666663E56063C186666D6187C18182E
S315080042801830000000000000001800FE7EAC660032
S3150800429030186C1818001C0CC6300CC6C0C6C60CE4
S315080042A0C6C61818387C380006C6C6C6C60606C668
S315080042B0C618366606C6C6C60666C6C618C66CEEEE
S315080042C0C6C00C0C606000FE0066660666060C60DA
S315080042D0661836360CC666660626066018663CD626
S315080042E03C600C1818300000000000000018006C34
S315080042F010E6DC00600C00180C001C067C78FE7CBE
S31508004300C07C7C067C7C000C70001C307CC67E7CE5
S315080043107EFE06FCC63C1CC6FEC6C67C06DCC67C03
S31508004320187C38C6C67EFE7CC07C00FE007C3E3CFF
S315080043307C3C0C3E66701C6638C6663C065C063ECF
S31508004340707C18FC663E7E301818000000000000DD
S31508004350000000000000000000000000000000004F
S31508004360000000000000000000000000000000003F
S31508004370000000000000000000000000000000002F
S31508004380000000000000000000000000000000001F
S31508004390000000000000000000000000000000000F
S315080043A000000000000000000000000000000000FF
S315080043B0000000006765636B6F5F73646B5F342E84
S315080043C0332E312F706C6174666F726D2F70657243
S315080043D06970686572616C2F7372632F7065726994
S315080043E070686572616C5F7379737274632E6300AB
S315080043F001031001010903000B0000000C00000076
S315080044000300000000002020000000000200000059
S315080044103C3C3C00000000000000000000000000DA
S315080044200126000004000000000000000001000052
S31508004430000000006765636B6F5F73646B5F342E03
S31508004440332E312F706C6174666F726D2F736572BF
S31508004450766963652F736C65657074696D65722F0F
S315080044607372632F736C5F736C65657074696D65C1
S31508004470722E63006765636B6F5F73646B5F342EC0
S31508004480332E312F706C6174666F726D2F7365727F
S31508004490766963652F7564656C61792F7372632F0E
S315080044A0736C5F7564656C61792E63006D656D6C00
S315080044B063645F6170702E63004D454D4C43442024
S315080044C053616D706C652041707000205072657381
S315080044D0732042544E3020746F20636C65617200FD
S315080044E02050726573732042544E3120746F2070C9
S311080044F072696E740000000020100020A5
S30D080044FCBCBCFF7F01000000B3
S31108004504104500080010002028000000E8
S3150800451000C00550290000000201FFFF0203000049
S31508004520C0EA2101C0EA2101C01753020080000039
S31508004530000000000000000000000000000000006D
S31508004540000000000000000000000000000000005D
S31508004550000000000000000000000000000000004D
S31508004560000000000000000000000000000000003D
S31508004570000000000000000000000000000000002D
S31508004580000000000000000000000000000000001D
S315080045900000000001010200000000000103020003
S315080045A0FFFFFFFF280101009D01000879010008AF
S7050800073DAE
